{
  "contractName": "PlayerBook",
  "abi": [
    {
      "constant": true,
      "inputs": [],
      "name": "teamJust",
      "outputs": [
        {
          "name": "",
          "type": "address"
        }
      ],
      "payable": false,
      "stateMutability": "view",
      "type": "function"
    },
    {
      "constant": true,
      "inputs": [
        {
          "name": "",
          "type": "address"
        }
      ],
      "name": "pIDxAddr_",
      "outputs": [
        {
          "name": "",
          "type": "uint256"
        }
      ],
      "payable": false,
      "stateMutability": "view",
      "type": "function"
    },
    {
      "constant": true,
      "inputs": [],
      "name": "registrationFee_",
      "outputs": [
        {
          "name": "",
          "type": "uint256"
        }
      ],
      "payable": false,
      "stateMutability": "view",
      "type": "function"
    },
    {
      "constant": true,
      "inputs": [
        {
          "name": "",
          "type": "uint256"
        },
        {
          "name": "",
          "type": "bytes32"
        }
      ],
      "name": "plyrNames_",
      "outputs": [
        {
          "name": "",
          "type": "bool"
        }
      ],
      "payable": false,
      "stateMutability": "view",
      "type": "function"
    },
    {
      "constant": true,
      "inputs": [
        {
          "name": "",
          "type": "address"
        }
      ],
      "name": "gameNames_",
      "outputs": [
        {
          "name": "",
          "type": "bytes32"
        }
      ],
      "payable": false,
      "stateMutability": "view",
      "type": "function"
    },
    {
      "constant": true,
      "inputs": [
        {
          "name": "",
          "type": "bytes32"
        }
      ],
      "name": "pIDxName_",
      "outputs": [
        {
          "name": "",
          "type": "uint256"
        }
      ],
      "payable": false,
      "stateMutability": "view",
      "type": "function"
    },
    {
      "constant": true,
      "inputs": [],
      "name": "pID_",
      "outputs": [
        {
          "name": "",
          "type": "uint256"
        }
      ],
      "payable": false,
      "stateMutability": "view",
      "type": "function"
    },
    {
      "constant": true,
      "inputs": [],
      "name": "owner",
      "outputs": [
        {
          "name": "",
          "type": "address"
        }
      ],
      "payable": false,
      "stateMutability": "view",
      "type": "function"
    },
    {
      "constant": true,
      "inputs": [
        {
          "name": "",
          "type": "uint256"
        },
        {
          "name": "",
          "type": "uint256"
        }
      ],
      "name": "plyrNameList_",
      "outputs": [
        {
          "name": "",
          "type": "bytes32"
        }
      ],
      "payable": false,
      "stateMutability": "view",
      "type": "function"
    },
    {
      "constant": true,
      "inputs": [],
      "name": "gID_",
      "outputs": [
        {
          "name": "",
          "type": "uint256"
        }
      ],
      "payable": false,
      "stateMutability": "view",
      "type": "function"
    },
    {
      "constant": true,
      "inputs": [
        {
          "name": "",
          "type": "uint256"
        }
      ],
      "name": "games_",
      "outputs": [
        {
          "name": "",
          "type": "address"
        }
      ],
      "payable": false,
      "stateMutability": "view",
      "type": "function"
    },
    {
      "constant": true,
      "inputs": [
        {
          "name": "",
          "type": "address"
        }
      ],
      "name": "gameIDs_",
      "outputs": [
        {
          "name": "",
          "type": "uint256"
        }
      ],
      "payable": false,
      "stateMutability": "view",
      "type": "function"
    },
    {
      "constant": true,
      "inputs": [
        {
          "name": "",
          "type": "uint256"
        }
      ],
      "name": "plyr_",
      "outputs": [
        {
          "name": "addr",
          "type": "address"
        },
        {
          "name": "name",
          "type": "bytes32"
        },
        {
          "name": "laff",
          "type": "uint256"
        },
        {
          "name": "names",
          "type": "uint256"
        }
      ],
      "payable": false,
      "stateMutability": "view",
      "type": "function"
    },
    {
      "inputs": [],
      "payable": false,
      "stateMutability": "nonpayable",
      "type": "constructor"
    },
    {
      "anonymous": false,
      "inputs": [
        {
          "indexed": true,
          "name": "playerID",
          "type": "uint256"
        },
        {
          "indexed": true,
          "name": "playerAddress",
          "type": "address"
        },
        {
          "indexed": true,
          "name": "playerName",
          "type": "bytes32"
        },
        {
          "indexed": false,
          "name": "isNewPlayer",
          "type": "bool"
        },
        {
          "indexed": false,
          "name": "affiliateID",
          "type": "uint256"
        },
        {
          "indexed": false,
          "name": "affiliateAddress",
          "type": "address"
        },
        {
          "indexed": false,
          "name": "affiliateName",
          "type": "bytes32"
        },
        {
          "indexed": false,
          "name": "amountPaid",
          "type": "uint256"
        },
        {
          "indexed": false,
          "name": "timeStamp",
          "type": "uint256"
        }
      ],
      "name": "onNewName",
      "type": "event"
    },
    {
      "constant": false,
      "inputs": [
        {
          "name": "_whatFunction",
          "type": "bytes32"
        }
      ],
      "name": "deleteAnyProposal",
      "outputs": [],
      "payable": false,
      "stateMutability": "nonpayable",
      "type": "function"
    },
    {
      "constant": true,
      "inputs": [
        {
          "name": "_whatFunction",
          "type": "bytes32"
        }
      ],
      "name": "checkData",
      "outputs": [
        {
          "name": "",
          "type": "bytes32"
        },
        {
          "name": "",
          "type": "uint256"
        }
      ],
      "payable": false,
      "stateMutability": "view",
      "type": "function"
    },
    {
      "constant": true,
      "inputs": [
        {
          "name": "_whatFunction",
          "type": "bytes32"
        },
        {
          "name": "_signerA",
          "type": "uint256"
        },
        {
          "name": "_signerB",
          "type": "uint256"
        },
        {
          "name": "_signerC",
          "type": "uint256"
        }
      ],
      "name": "checkSignersByAddress",
      "outputs": [
        {
          "name": "",
          "type": "address"
        },
        {
          "name": "",
          "type": "address"
        },
        {
          "name": "",
          "type": "address"
        }
      ],
      "payable": false,
      "stateMutability": "view",
      "type": "function"
    },
    {
      "constant": true,
      "inputs": [
        {
          "name": "_whatFunction",
          "type": "bytes32"
        },
        {
          "name": "_signerA",
          "type": "uint256"
        },
        {
          "name": "_signerB",
          "type": "uint256"
        },
        {
          "name": "_signerC",
          "type": "uint256"
        }
      ],
      "name": "checkSignersByName",
      "outputs": [
        {
          "name": "",
          "type": "bytes32"
        },
        {
          "name": "",
          "type": "bytes32"
        },
        {
          "name": "",
          "type": "bytes32"
        }
      ],
      "payable": false,
      "stateMutability": "view",
      "type": "function"
    },
    {
      "constant": false,
      "inputs": [
        {
          "name": "_teamJust",
          "type": "address"
        }
      ],
      "name": "setTeam",
      "outputs": [],
      "payable": false,
      "stateMutability": "nonpayable",
      "type": "function"
    },
    {
      "constant": true,
      "inputs": [
        {
          "name": "_nameStr",
          "type": "string"
        }
      ],
      "name": "checkIfNameValid",
      "outputs": [
        {
          "name": "",
          "type": "bool"
        }
      ],
      "payable": false,
      "stateMutability": "view",
      "type": "function"
    },
    {
      "constant": false,
      "inputs": [
        {
          "name": "_nameString",
          "type": "string"
        },
        {
          "name": "_affCode",
          "type": "uint256"
        },
        {
          "name": "_all",
          "type": "bool"
        }
      ],
      "name": "registerNameXID",
      "outputs": [],
      "payable": true,
      "stateMutability": "payable",
      "type": "function"
    },
    {
      "constant": false,
      "inputs": [
        {
          "name": "_nameString",
          "type": "string"
        },
        {
          "name": "_affCode",
          "type": "address"
        },
        {
          "name": "_all",
          "type": "bool"
        }
      ],
      "name": "registerNameXaddr",
      "outputs": [],
      "payable": true,
      "stateMutability": "payable",
      "type": "function"
    },
    {
      "constant": false,
      "inputs": [
        {
          "name": "_nameString",
          "type": "string"
        },
        {
          "name": "_affCode",
          "type": "bytes32"
        },
        {
          "name": "_all",
          "type": "bool"
        }
      ],
      "name": "registerNameXname",
      "outputs": [],
      "payable": true,
      "stateMutability": "payable",
      "type": "function"
    },
    {
      "constant": false,
      "inputs": [
        {
          "name": "_gameID",
          "type": "uint256"
        }
      ],
      "name": "addMeToGame",
      "outputs": [],
      "payable": false,
      "stateMutability": "nonpayable",
      "type": "function"
    },
    {
      "constant": false,
      "inputs": [],
      "name": "addMeToAllGames",
      "outputs": [],
      "payable": false,
      "stateMutability": "nonpayable",
      "type": "function"
    },
    {
      "constant": false,
      "inputs": [
        {
          "name": "_nameString",
          "type": "string"
        }
      ],
      "name": "useMyOldName",
      "outputs": [],
      "payable": false,
      "stateMutability": "nonpayable",
      "type": "function"
    },
    {
      "constant": false,
      "inputs": [
        {
          "name": "_addr",
          "type": "address"
        }
      ],
      "name": "getPlayerID",
      "outputs": [
        {
          "name": "",
          "type": "uint256"
        }
      ],
      "payable": false,
      "stateMutability": "nonpayable",
      "type": "function"
    },
    {
      "constant": true,
      "inputs": [
        {
          "name": "_pID",
          "type": "uint256"
        }
      ],
      "name": "getPlayerName",
      "outputs": [
        {
          "name": "",
          "type": "bytes32"
        }
      ],
      "payable": false,
      "stateMutability": "view",
      "type": "function"
    },
    {
      "constant": true,
      "inputs": [
        {
          "name": "_pID",
          "type": "uint256"
        }
      ],
      "name": "getPlayerLAff",
      "outputs": [
        {
          "name": "",
          "type": "uint256"
        }
      ],
      "payable": false,
      "stateMutability": "view",
      "type": "function"
    },
    {
      "constant": true,
      "inputs": [
        {
          "name": "_pID",
          "type": "uint256"
        }
      ],
      "name": "getPlayerAddr",
      "outputs": [
        {
          "name": "",
          "type": "address"
        }
      ],
      "payable": false,
      "stateMutability": "view",
      "type": "function"
    },
    {
      "constant": true,
      "inputs": [],
      "name": "getNameFee",
      "outputs": [
        {
          "name": "",
          "type": "uint256"
        }
      ],
      "payable": false,
      "stateMutability": "view",
      "type": "function"
    },
    {
      "constant": false,
      "inputs": [
        {
          "name": "_addr",
          "type": "address"
        },
        {
          "name": "_name",
          "type": "bytes32"
        },
        {
          "name": "_affCode",
          "type": "uint256"
        },
        {
          "name": "_all",
          "type": "bool"
        }
      ],
      "name": "registerNameXIDFromDapp",
      "outputs": [
        {
          "name": "",
          "type": "bool"
        },
        {
          "name": "",
          "type": "uint256"
        }
      ],
      "payable": true,
      "stateMutability": "payable",
      "type": "function"
    },
    {
      "constant": false,
      "inputs": [
        {
          "name": "_addr",
          "type": "address"
        },
        {
          "name": "_name",
          "type": "bytes32"
        },
        {
          "name": "_affCode",
          "type": "address"
        },
        {
          "name": "_all",
          "type": "bool"
        }
      ],
      "name": "registerNameXaddrFromDapp",
      "outputs": [
        {
          "name": "",
          "type": "bool"
        },
        {
          "name": "",
          "type": "uint256"
        }
      ],
      "payable": true,
      "stateMutability": "payable",
      "type": "function"
    },
    {
      "constant": false,
      "inputs": [
        {
          "name": "_addr",
          "type": "address"
        },
        {
          "name": "_name",
          "type": "bytes32"
        },
        {
          "name": "_affCode",
          "type": "bytes32"
        },
        {
          "name": "_all",
          "type": "bool"
        }
      ],
      "name": "registerNameXnameFromDapp",
      "outputs": [
        {
          "name": "",
          "type": "bool"
        },
        {
          "name": "",
          "type": "uint256"
        }
      ],
      "payable": true,
      "stateMutability": "payable",
      "type": "function"
    },
    {
      "constant": false,
      "inputs": [
        {
          "name": "_gameAddress",
          "type": "address"
        },
        {
          "name": "_gameNameStr",
          "type": "bytes32"
        }
      ],
      "name": "addGame",
      "outputs": [],
      "payable": false,
      "stateMutability": "nonpayable",
      "type": "function"
    },
    {
      "constant": false,
      "inputs": [
        {
          "name": "_fee",
          "type": "uint256"
        }
      ],
      "name": "setRegistrationFee",
      "outputs": [],
      "payable": false,
      "stateMutability": "nonpayable",
      "type": "function"
    },
    {
      "constant": true,
      "inputs": [
        {
          "name": "_who",
          "type": "address"
        }
      ],
      "name": "isDev",
      "outputs": [
        {
          "name": "",
          "type": "bool"
        }
      ],
      "payable": false,
      "stateMutability": "view",
      "type": "function"
    }
  ],
  "bytecode": "0x6080604052662386f26fc1000060035534801561001b57600080fd5b50600e8054600160a060020a0319908116339081179092557f72c6bfb7988af3a1efa6568f02a999bc52252641c659d85961ca3d372b57d5cf80548216831790557f61730000000000000000000000000000000000000000000000000000000000007f72c6bfb7988af3a1efa6568f02a999bc52252641c659d85961ca3d372b57d5d081905560017f72c6bfb7988af3a1efa6568f02a999bc52252641c659d85961ca3d372b57d5d2819055600093845260096020908152604085208290557fe2d1e9ac602586398ea6e8cad0456bc2bb23bca0f064db792cca2f03b44e7d3e8290557f1408b41bbc18cdb1762693b8707c638066d254100c36574a646300bbea3dca1e805460ff1916831790558185527ffd54ff1ed53f34a900b24c5ba64f85761163b5d82d98a47b9bd80e45466993c590527f9786f677b3dff6c36ad0d47ef13860fd51b928c112d9702e0dea2fe690bf6ec19190915560085581541673254dece08c6992c64464976d6de25d5a6de833cf17905561314c806101a16000396000f3006080604052600436106101a85763ffffffff60e060020a600035041663095cf5c681146101ad5780630c3f64bf146101d05780630c6940ea146102055780630efcf2951461021a5780630f3bd3fd1461023257806310f01eba14610263578063180603eb146102965780632614195f146102ab5780632660316e146102c057806327249e61146102db5780632e19ebdc146102fc5780633ddd4698146103145780634b227176146103705780634d0d35ff14610385578063685ffd831461039d5780636c52660d146103f0578063745ea0c114610449578063768f930d1461048357806381c5b206146104cf57806382e37b2c146104e75780638da5cb5b146104ff578063921dec2114610514578063a448ed4b14610567578063a553506e14610582578063aa4d490b146105b3578063b9291296146105d6578063b9eca0c81461062f578063c0942dfd14610644578063c320c72714610663578063c91317f41461067b578063d52412791461069f578063dbbcaa97146106b7578063de7874f3146106d8578063e3c08adf14610720578063e56556a914610738578063ed3643d614610759575b600080fd5b3480156101b957600080fd5b506101ce600160a060020a0360043516610798565b005b3480156101dc57600080fd5b506101f1600160a060020a036004351661088a565b604080519115158252519081900360200190f35b34801561021157600080fd5b506101ce610913565b34801561022657600080fd5b506101ce600435610b93565b34801561023e57600080fd5b50610247610c64565b60408051600160a060020a039092168252519081900360200190f35b34801561026f57600080fd5b50610284600160a060020a0360043516610c73565b60408051918252519081900360200190f35b3480156102a257600080fd5b50610284610c85565b3480156102b757600080fd5b50610284610c8b565b3480156102cc57600080fd5b506101f1600435602435610c91565b3480156102e757600080fd5b50610284600160a060020a0360043516610cb1565b34801561030857600080fd5b50610284600435610cc3565b6040805160206004803580820135601f81018490048402850184019095528484526101ce94369492936024939284019190819084018382808284375094975050600160a060020a03853516955050505050602001351515610cd5565b34801561037c57600080fd5b50610284610e3f565b34801561039157600080fd5b50610247600435610e45565b6040805160206004803580820135601f81018490048402850184019095528484526101ce943694929360249392840191908190840183828082843750949750508435955050505050602001351515610e60565b3480156103fc57600080fd5b506040805160206004803580820135601f81018490048402850184019095528484526101f1943694929360249392840191908190840183828082843750949750610f9e9650505050505050565b610468600160a060020a03600435166024356044356064351515610fd6565b60408051921515835260208301919091528051918290030190f35b34801561048f57600080fd5b506104a46004356024356044356064356110ea565b60408051600160a060020a039485168152928416602084015292168183015290519081900360600190f35b3480156104db57600080fd5b506101ce6004356111e7565b3480156104f357600080fd5b506102846004356114ca565b34801561050b57600080fd5b506102476114df565b6040805160206004803580820135601f81018490048402850184019095528484526101ce9436949293602493928401919081908401838280828437509497505084359550505050506020013515156114ee565b34801561057357600080fd5b50610284600435602435611630565b34801561058e57600080fd5b5061059a60043561164d565b6040805192835260208301919091528051918290030190f35b610468600160a060020a0360043581169060243590604435166064351515611733565b3480156105e257600080fd5b506040805160206004803580820135601f81018490048402850184019095528484526101ce9436949293602493928401919081908401838280828437509497506118569650505050505050565b34801561063b57600080fd5b50610284611948565b610468600160a060020a0360043516602435604435606435151561194e565b34801561066f57600080fd5b506101ce600435611a5a565b34801561068757600080fd5b506101ce600160a060020a0360043516602435611b7e565b3480156106ab57600080fd5b50610247600435611d94565b3480156106c357600080fd5b50610284600160a060020a0360043516611daf565b3480156106e457600080fd5b506106f0600435611dc1565b60408051600160a060020a0390951685526020850193909352838301919091526060830152519081900360800190f35b34801561072c57600080fd5b50610284600435611df2565b34801561074457600080fd5b50610284600160a060020a0360043516611e07565b34801561076557600080fd5b5061077a600435602435604435606435611e48565b60408051938452602084019290925282820152519081900360600190f35b600e54600160a060020a031633146107fa576040805160e560020a62461bcd02815260206004820152600960248201527f6f6e6c7920646576210000000000000000000000000000000000000000000000604482015290519081900360640190fd5b600154600160a060020a03161561085b576040805160e560020a62461bcd02815260206004820152600c60248201527f616c726561647920736574210000000000000000000000000000000000000000604482015290519081900360640190fd5b6001805473ffffffffffffffffffffffffffffffffffffffff1916600160a060020a0392909216919091179055565b6001546040805160e060020a630c3f64bf028152600160a060020a03848116600483015291516000939290921691630c3f64bf9160248082019260209290919082900301818787803b1580156108df57600080fd5b505af11580156108f3573d6000803e3d6000fd5b505050506040513d602081101561090957600080fd5b505190505b919050565b600080808080808033803b8015610962576040805160e560020a62461bcd0281526020600482015260116024820152600080516020613101833981519152604482015290519081900360640190fd5b3360008181526009602052604090205490995097508715156109f4576040805160e560020a62461bcd02815260206004820152602e60248201527f6865792074686572652062756464792c20796f7520646f6e74206576656e206860448201527f61766520616e206163636f756e74000000000000000000000000000000000000606482015290519081900360840190fd5b6000888152600b60205260409020600281015460038201546001928301549199509750955093505b6007548411610b885760008481526004602081905260408083205481517f49cc635d0000000000000000000000000000000000000000000000000000000081529283018c9052600160a060020a038d81166024850152604484018a9052606484018c905291519116926349cc635d926084808201939182900301818387803b158015610aa757600080fd5b505af1158015610abb573d6000803e3d6000fd5b505050506001861115610b7d57600192505b858311610b7d576000848152600460208181526040808420548c8552600d83528185208886529092528084205481517f8f7140ea0000000000000000000000000000000000000000000000000000000081529384018d9052602484015251600160a060020a0390911692638f7140ea926044808201939182900301818387803b158015610b5957600080fd5b505af1158015610b6d573d6000803e3d6000fd5b505060019094019350610acd9050565b600190930192610a1c565b505050505050505050565b6001546040805160e060020a630c3f64bf0281523360048201529051600160a060020a0390921691630c3f64bf916024808201926020929091908290030181600087803b158015610be357600080fd5b505af1158015610bf7573d6000803e3d6000fd5b505050506040513d6020811015610c0d57600080fd5b50511515600114610c56576040805160e560020a62461bcd02815260206004820152601760248201526000805160206130c1833981519152604482015290519081900360640190fd5b610c616002826120dd565b50565b600154600160a060020a031681565b60096020526000908152604090205481565b60035481565b60035490565b600c60209081526000928352604080842090915290825290205460ff1681565b60056020526000908152604090205481565b600a6020526000908152604090205481565b60008080808033803b8015610d22576040805160e560020a62461bcd0281526020600482015260116024820152600080516020613101833981519152604482015290519081900360640190fd5b600354341015610d7e576040805160e560020a62461bcd02815260206004820152602660248201526000805160206130a183398151915260448201526000805160206130e1833981519152606482015290519081900360840190fd5b610d878a61218f565b9650339550610d95866129a2565b600160a060020a03808816600090815260096020526040902054919650909450891615801590610dd7575085600160a060020a031689600160a060020a031614155b15610e2557600160a060020a038916600090815260096020908152604080832054878452600b909252909120600201549093508314610e25576000848152600b602052604090206002018390555b610e338487858a898d612a24565b50505050505050505050565b60085481565b6000908152600b6020526040902054600160a060020a031690565b60008080808033803b8015610ead576040805160e560020a62461bcd0281526020600482015260116024820152600080516020613101833981519152604482015290519081900360640190fd5b600354341015610f09576040805160e560020a62461bcd02815260206004820152602660248201526000805160206130a183398151915260448201526000805160206130e1833981519152606482015290519081900360840190fd5b610f128a61218f565b9650339550610f20866129a2565b600160a060020a03871660009081526009602052604090205490955093508815801590610f4d5750888714155b15610e25576000898152600a6020908152604080832054878452600b909252909120600201549093508314610e25576000848152600b60205260409020600201839055610e338487858a898d612a24565b600080610faa8361218f565b6000818152600a60205260409020549091501515610fcb5760019150610fd0565b600091505b50919050565b3360009081526006602052604081205481908190819081901515610ff957600080fd5b600354341015611055576040805160e560020a62461bcd02815260206004820152602660248201526000805160206130a183398151915260448201526000805160206130e1833981519152606482015290519081900360840190fd5b61105e896129a2565b600160a060020a038a166000908152600960205260409020549093509150861580159061108b5750868814155b156110cd57506000868152600a6020908152604080832054848452600b9092529091206002015481146110cd576000828152600b602052604090206002018190555b6110db828a838b878b612a24565b91989197509095505050505050565b6001546040805160e060020a630c3f64bf028152336004820152905160009283928392600160a060020a0390921691630c3f64bf9160248082019260209290919082900301818787803b15801561114057600080fd5b505af1158015611154573d6000803e3d6000fd5b505050506040513d602081101561116a57600080fd5b505115156001146111b3576040805160e560020a62461bcd02815260206004820152601760248201526000805160206130c1833981519152604482015290519081900360640190fd5b6111bf60028888612cbb565b6111cb60028988612cbb565b6111d760028a88612cbb565b9250925092509450945094915050565b600080808033803b8015611233576040805160e560020a62461bcd0281526020600482015260116024820152600080516020613101833981519152604482015290519081900360640190fd5b6007548711156112b3576040805160e560020a62461bcd02815260206004820152602960248201527f73696c6c7920706c617965722c20746861742067616d6520646f65736e27742060448201527f6578697374207965740000000000000000000000000000000000000000000000606482015290519081900360840190fd5b336000818152600960205260409020549096509450841515611345576040805160e560020a62461bcd02815260206004820152602e60248201527f6865792074686572652062756464792c20796f7520646f6e74206576656e206860448201527f61766520616e206163636f756e74000000000000000000000000000000000000606482015290519081900360840190fd5b6000858152600b6020818152604080842060038101548c86526004808552838720548c885295909452600182015460029092015483517f49cc635d0000000000000000000000000000000000000000000000000000000081529485018c9052600160a060020a038d81166024870152604486019390935260648501529151919850909216926349cc635d9260848084019382900301818387803b1580156113eb57600080fd5b505af11580156113ff573d6000803e3d6000fd5b5050505060018411156114c157600192505b8383116114c157600087815260046020818152604080842054898552600d83528185208886529092528084205481517f8f7140ea0000000000000000000000000000000000000000000000000000000081529384018a9052602484015251600160a060020a0390911692638f7140ea926044808201939182900301818387803b15801561149d57600080fd5b505af11580156114b1573d6000803e3d6000fd5b5050600190940193506114119050565b50505050505050565b6000908152600b602052604090206001015490565b600e54600160a060020a031681565b600080808033803b801561153a576040805160e560020a62461bcd0281526020600482015260116024820152600080516020613101833981519152604482015290519081900360640190fd5b600354341015611596576040805160e560020a62461bcd02815260206004820152602660248201526000805160206130a183398151915260448201526000805160206130e1833981519152606482015290519081900360840190fd5b61159f8961218f565b95503394506115ad856129a2565b600160a060020a038616600090815260096020526040902054909450925087158015906115eb57506000838152600b60205260409020600201548814155b80156115f75750828814155b15611615576000838152600b60205260409020600201889055611622565b8288141561162257600097505b610b8883868a89888c612a24565b600d60209081526000928352604080842090915290825290205481565b6001546040805160e060020a630c3f64bf02815233600482015290516000928392600160a060020a0390911691630c3f64bf9160248082019260209290919082900301818787803b1580156116a157600080fd5b505af11580156116b5573d6000803e3d6000fd5b505050506040513d60208110156116cb57600080fd5b50511515600114611714576040805160e560020a62461bcd02815260206004820152601760248201526000805160206130c1833981519152604482015290519081900360640190fd5b61171f600284612d78565b61172a600285612d9c565b91509150915091565b336000908152600660205260408120548190819081908190151561175657600080fd5b6003543410156117b2576040805160e560020a62461bcd02815260206004820152602660248201526000805160206130a183398151915260448201526000805160206130e1833981519152606482015290519081900360840190fd5b6117bb896129a2565b600160a060020a03808b166000908152600960205260409020549194509092508716158015906117fd575088600160a060020a031687600160a060020a031614155b156110cd5750600160a060020a038616600090815260096020908152604080832054848452600b9092529091206002015481146110cd576000828152600b602052604090206002018190556110db828a838b878b612a24565b60008033803b80156118a0576040805160e560020a62461bcd0281526020600482015260116024820152600080516020613101833981519152604482015290519081900360640190fd5b6118a98561218f565b33600090815260096020908152604080832054808452600c835281842085855290925290912054919550935060ff161515600114611931576040805160e560020a62461bcd02815260206004820152601f60248201527f756d6d2e2e2e207468617473206e6f742061206e616d6520796f75206f776e00604482015290519081900360640190fd5b50506000908152600b602052604090206001015550565b60075481565b336000908152600660205260408120548190819081908190151561197157600080fd5b6003543410156119cd576040805160e560020a62461bcd02815260206004820152602660248201526000805160206130a183398151915260448201526000805160206130e1833981519152606482015290519081900360840190fd5b6119d6896129a2565b600160a060020a038a1660009081526009602052604090205490935091508690508015801590611a1757506000828152600b60205260409020600201548114155b8015611a235750818114155b15611a41576000828152600b602052604090206002018190556110cd565b818114156110cd575060006110db828a838b878b612a24565b6001546040805160e060020a630c3f64bf0281523360048201529051600160a060020a0390921691630c3f64bf916024808201926020929091908290030181600087803b158015611aaa57600080fd5b505af1158015611abe573d6000803e3d6000fd5b505050506040513d6020811015611ad457600080fd5b50511515600114611b1d576040805160e560020a62461bcd02815260206004820152601760248201526000805160206130c1833981519152604482015290519081900360640190fd5b611b467f736574526567697374726174696f6e4665650000000000000000000000000000612dc3565b151560011415610c6157611b797f736574526567697374726174696f6e4665650000000000000000000000000000610c56565b600355565b6001546040805160e060020a630c3f64bf0281523360048201529051600092600160a060020a031691630c3f64bf91602480830192602092919082900301818787803b158015611bcd57600080fd5b505af1158015611be1573d6000803e3d6000fd5b505050506040513d6020811015611bf757600080fd5b50511515600114611c40576040805160e560020a62461bcd02815260206004820152601760248201526000805160206130c1833981519152604482015290519081900360640190fd5b600160a060020a03831660009081526006602052604090205415611cd4576040805160e560020a62461bcd02815260206004820152602860248201527f646572702c20746861742067616d657320616c7265616479206265656e20726560448201527f6769737465726564000000000000000000000000000000000000000000000000606482015290519081900360840190fd5b611cfd7f61646447616d6500000000000000000000000000000000000000000000000000612dc3565b151560011415611d8f57611d307f61646447616d6500000000000000000000000000000000000000000000000000610c56565b5060078054600101808255600160a060020a038416600081815260066020908152604080832094909455600581528382208690559354815260049093529120805473ffffffffffffffffffffffffffffffffffffffff19169091179055805b505050565b600460205260009081526040902054600160a060020a031681565b60066020526000908152604090205481565b600b602052600090815260409020805460018201546002830154600390930154600160a060020a0390921692909184565b6000908152600b602052604090206002015490565b336000908152600660205260408120541515611e2257600080fd5b611e2b826129a2565b5050600160a060020a031660009081526009602052604090205490565b6001546040805160e060020a630c3f64bf028152336004820152905160009283928392600160a060020a0390921691630c3f64bf9160248082019260209290919082900301818787803b158015611e9e57600080fd5b505af1158015611eb2573d6000803e3d6000fd5b505050506040513d6020811015611ec857600080fd5b50511515600114611f11576040805160e560020a62461bcd02815260206004820152601760248201526000805160206130c1833981519152604482015290519081900360640190fd5b600154600160a060020a031663af1c084d611f2e60028a8a612cbb565b6040518263ffffffff1660e060020a0281526004018082600160a060020a0316600160a060020a03168152602001915050602060405180830381600087803b158015611f7957600080fd5b505af1158015611f8d573d6000803e3d6000fd5b505050506040513d6020811015611fa357600080fd5b5051600154600160a060020a031663af1c084d611fc260028b8a612cbb565b6040518263ffffffff1660e060020a0281526004018082600160a060020a0316600160a060020a03168152602001915050602060405180830381600087803b15801561200d57600080fd5b505af1158015612021573d6000803e3d6000fd5b505050506040513d602081101561203757600080fd5b5051600154600160a060020a031663af1c084d61205660028c8a612cbb565b6040518263ffffffff1660e060020a0281526004018082600160a060020a0316600160a060020a03168152602001915050602060405180830381600087803b1580156120a157600080fd5b505af11580156120b5573d6000803e3d6000fd5b505050506040513d60208110156120cb57600080fd5b50519199909850909650945050505050565b60008060006120eb84612e55565b9250600090505b60008381526020869052604090206001015481101561217457600083815260208681526040808320848452600381018084528285208054600160a060020a031680875260029093018552928520805460ff191690559385905292909152805473ffffffffffffffffffffffffffffffffffffffff1916905591506001016120f2565b50506000908152602092909252506040812081815560010155565b80516000908290828080602084118015906121aa5750600084115b1515612226576040805160e560020a62461bcd02815260206004820152602a60248201527f737472696e67206d757374206265206265747765656e203120616e642033322060448201527f6368617261637465727300000000000000000000000000000000000000000000606482015290519081900360840190fd5b84600081518110151561223557fe5b90602001015160f860020a900460f860020a02600160f860020a031916602060f860020a021415801561229c5750846001850381518110151561227457fe5b90602001015160f860020a900460f860020a02600160f860020a031916602060f860020a0214155b1515612318576040805160e560020a62461bcd02815260206004820152602560248201527f737472696e672063616e6e6f74207374617274206f7220656e6420776974682060448201527f7370616365000000000000000000000000000000000000000000000000000000606482015290519081900360840190fd5b84600081518110151561232757fe5b90602001015160f860020a900460f860020a02600160f860020a031916603060f860020a02141561246a5784600181518110151561236157fe5b90602001015160f860020a900460f860020a02600160f860020a031916607860f860020a02141515156123de576040805160e560020a62461bcd02815260206004820152601b60248201527f737472696e672063616e6e6f7420737461727420776974682030780000000000604482015290519081900360640190fd5b8460018151811015156123ed57fe5b90602001015160f860020a900460f860020a02600160f860020a031916605860f860020a021415151561246a576040805160e560020a62461bcd02815260206004820152601b60248201527f737472696e672063616e6e6f7420737461727420776974682030580000000000604482015290519081900360640190fd5b600091505b8382101561293a5784517f4000000000000000000000000000000000000000000000000000000000000000908690849081106124a757fe5b90602001015160f860020a900460f860020a02600160f860020a03191611801561251b575084517f5b00000000000000000000000000000000000000000000000000000000000000908690849081106124fc57fe5b90602001015160f860020a900460f860020a02600160f860020a031916105b1561258857848281518110151561252e57fe5b90602001015160f860020a900460f860020a0260f860020a900460200160f860020a02858381518110151561255f57fe5b906020010190600160f860020a031916908160001a90535082151561258357600192505b61292f565b848281518110151561259657fe5b90602001015160f860020a900460f860020a02600160f860020a031916602060f860020a021480612666575084517f6000000000000000000000000000000000000000000000000000000000000000908690849081106125f257fe5b90602001015160f860020a900460f860020a02600160f860020a031916118015612666575084517f7b000000000000000000000000000000000000000000000000000000000000009086908490811061264757fe5b90602001015160f860020a900460f860020a02600160f860020a031916105b80612710575084517f2f000000000000000000000000000000000000000000000000000000000000009086908490811061269c57fe5b90602001015160f860020a900460f860020a02600160f860020a031916118015612710575084517f3a00000000000000000000000000000000000000000000000000000000000000908690849081106126f157fe5b90602001015160f860020a900460f860020a02600160f860020a031916105b151561278c576040805160e560020a62461bcd02815260206004820152602260248201527f737472696e6720636f6e7461696e7320696e76616c696420636861726163746560448201527f7273000000000000000000000000000000000000000000000000000000000000606482015290519081900360840190fd5b848281518110151561279a57fe5b90602001015160f860020a900460f860020a02600160f860020a031916602060f860020a0214156128795784826001018151811015156127d657fe5b90602001015160f860020a900460f860020a02600160f860020a031916602060f860020a0214151515612879576040805160e560020a62461bcd02815260206004820152602860248201527f737472696e672063616e6e6f7420636f6e7461696e20636f6e7365637574697660448201527f6520737061636573000000000000000000000000000000000000000000000000606482015290519081900360840190fd5b82158015612925575084517f3000000000000000000000000000000000000000000000000000000000000000908690849081106128b257fe5b90602001015160f860020a900460f860020a02600160f860020a0319161080612925575084517f39000000000000000000000000000000000000000000000000000000000000009086908490811061290657fe5b90602001015160f860020a900460f860020a02600160f860020a031916115b1561292f57600192505b60019091019061246f565b600183151514612994576040805160e560020a62461bcd02815260206004820152601d60248201527f737472696e672063616e6e6f74206265206f6e6c79206e756d62657273000000604482015290519081900360640190fd5b505050506020015192915050565b600160a060020a0381166000908152600960205260408120541515612a1c575060088054600190810191829055600160a060020a0383166000818152600960209081526040808320869055948252600b905292909220805473ffffffffffffffffffffffffffffffffffffffff191690921790915561090e565b50600061090e565b6000838152600a602052604081205415612aae576000878152600c6020908152604080832087845290915290205460ff161515600114612aae576040805160e560020a62461bcd02815260206004820152601e60248201527f736f7272792074686174206e616d657320616c72656164792074616b656e0000604482015290519081900360640190fd5b6000878152600b60209081526040808320600101879055868352600a82528083208a9055898352600c825280832087845290915290205460ff161515612b3e576000878152600c602090815260408083208784528252808320805460ff191660019081179091558a8452600b8352818420600301805490910190819055600d835281842090845290915290208490555b60008054604051600160a060020a0390911691303180156108fc02929091818181858888f19350505050158015612b79573d6000803e3d6000fd5b5060018215151415612c38575060015b6007548111612c385760008181526004602081905260408083205481517f49cc635d0000000000000000000000000000000000000000000000000000000081529283018b9052600160a060020a038a8116602485015260448401899052606484018a905291519116926349cc635d926084808201939182900301818387803b158015612c1457600080fd5b505af1158015612c28573d6000803e3d6000fd5b505060019092019150612b899050565b6000858152600b6020908152604091829020805460019091015483518715158152928301899052600160a060020a039182168385015260608301523460808301524260a0830152915186928916918a917fdd6176433ff5026bbce96b068584b7bbe3514227e72df9c630b749ae87e644429181900360c00190a450505050505050565b600080808311612d3b576040805160e560020a62461bcd02815260206004820152602860248201527f4d5346756e20636865636b5369676e6572206661696c6564202d2030206e6f7460448201527f20616c6c6f776564000000000000000000000000000000000000000000000000606482015290519081900360840190fd5b612d4484612e55565b60008181526020878152604080832060001988018452600301909152902054600160a060020a031692509050509392505050565b600080612d8483612e55565b60009081526020949094525050604090912054919050565b600080612da883612e55565b60009081526020949094525050604090912060010154919050565b6000612e4f6002600160009054906101000a9004600160a060020a0316600160a060020a031663fcf2f85f6040518163ffffffff1660e060020a028152600401602060405180830381600087803b158015612e1d57600080fd5b505af1158015612e31573d6000803e3d6000fd5b505050506040513d6020811015612e4757600080fd5b505184612ee9565b92915050565b6040805160208082018490526c01000000000000000000000000300282840152825160348184030181526054909201928390528151600093918291908401908083835b60208310612eb75780518252601f199092019160209182019101612e98565b5181516020939093036101000a6000190180199091169216919091179052604051920182900390912095945050505050565b6000806000806000612efa86612e55565b600081815260208a905260408082206001015490519296509450339350903690808383808284376040519201829003909120945050508415159150612fc4905057600084815260208981526040808320848155600160a060020a038616808552600282018452828520805460ff19166001908117909155888652600383018552928520805473ffffffffffffffffffffffffffffffffffffffff1916909117905592879052908a9052908101805490910190819055871415612fbf5760019450613095565b613095565b60008481526020899052604090205481141561309557600084815260208981526040808320600160a060020a038616845260020190915290205460ff16151561307757600084815260208981526040808320600160a060020a038616808552600282018452828520805460ff19166001908117909155888652600383018552928520805473ffffffffffffffffffffffffffffffffffffffff1916909117905592879052908a9052908101805490910190555b60008481526020899052604090206001015487141561309557600194505b5050505093925050505600756d6d2e2e2e2e2e2020796f75206861766520746f2070617920746865206e616d73672073656e646572206973206e6f742061206465760000000000000000006d65206665650000000000000000000000000000000000000000000000000000736f7272792068756d616e73206f6e6c79000000000000000000000000000000a165627a7a72305820e20d9a747b1d281d776a0c7eb073cb03d08266e010a030f9e7961898cb07661d0029",
  "source": "pragma solidity ^0.4.24;\n/*\n * -PlayerBook - v0.3.14\n *       \n *                \n *               \n *                                  _____                      _____\n *                                 (, /     /)       /) /)    (, /      /)          /)\n *                                /   _ (/_      // //       /  _   // _   __  _(/\n *                            ___/___(/_/(__(_/_(/_(/_   ___/__/_)_(/_(_(_/ (_(_(_\n *                           /   /          .-/ _____   (__ /\n *                            (__ /          (_/ (, /                                      /)\n *                                                 /  __  __ __ __  _   __ __  _  _/_ _  _(/\n *                            /__/ (_(__(_)/ (_/_)_(_)/ (_(_(_(__(/_(_(_\n *                             (__ /              .-/   Jekyll Island Inc. 2018\n *                                            (_/\n *     ______   _                                 ______                 _          \n *====(_____ \\=| |===============================(____  \\===============| |=============*\n *     _____) )| |  _____  _   _  _____   ____    ____)  )  ___    ___  | |  _\n *    |  ____/ | | (____ || | | || ___ | / ___)  |  __  (  / _ \\  / _ \\ | |_/ )\n *    | |      | | / ___ || |_| || ____|| |      | |__)  )| |_| || |_| ||  _ (\n *====|_|=======\\_)\\_____|=\\__  ||_____)|_|======|______/==\\___/==\\___/=|_|=\\_)=========*\n *                        (____/\n *                           \n *                   Inventor                       \n *             \n */\n\nimport \"./library/SafeMath.sol\";\nimport \"./library/NameFilter.sol\";\nimport \"./library/MSFun.sol\";\n\nimport \"./interface/TeamJustInterface.sol\";\nimport \"./interface/PlayerBookReceiverInterface.sol\";\nimport \"./interface/PlayerBookInterface.sol\";\n\nimport \"./TeamJust.sol\";\n\n\ncontract PlayerBook is PlayerBookInterface {\n    using NameFilter for string;\n    using SafeMath for uint256;\n\n    address private Jekyll_Island_Inc;\n    address public teamJust;// = new TeamJustInterface();\n\n    MSFun.Data private msData;\n\n    function multiSigDev(bytes32 _whatFunction) private returns (bool) {return (MSFun.multiSig(msData, TeamJustInterface(teamJust).requiredDevSignatures(), _whatFunction));}\n\n    function deleteProposal(bytes32 _whatFunction) private {MSFun.deleteProposal(msData, _whatFunction);}\n\n    function deleteAnyProposal(bytes32 _whatFunction) onlyDevs() public {MSFun.deleteProposal(msData, _whatFunction);}\n\n    function checkData(bytes32 _whatFunction) onlyDevs() public view returns (bytes32, uint256) {return (MSFun.checkMsgData(msData, _whatFunction), MSFun.checkCount(msData, _whatFunction));}\n\n    function checkSignersByAddress(bytes32 _whatFunction, uint256 _signerA, uint256 _signerB, uint256 _signerC) onlyDevs() public view returns (address, address, address) {return (MSFun.checkSigner(msData, _whatFunction, _signerA), MSFun.checkSigner(msData, _whatFunction, _signerB), MSFun.checkSigner(msData, _whatFunction, _signerC));}\n\n    function checkSignersByName(bytes32 _whatFunction, uint256 _signerA, uint256 _signerB, uint256 _signerC) onlyDevs() public view returns (bytes32, bytes32, bytes32) {return (TeamJustInterface(teamJust).adminName(MSFun.checkSigner(msData, _whatFunction, _signerA)), TeamJustInterface(teamJust).adminName(MSFun.checkSigner(msData, _whatFunction, _signerB)), TeamJustInterface(teamJust).adminName(MSFun.checkSigner(msData, _whatFunction, _signerC)));}\n    //==============================================================================\n    //     _| _ _|_ _    _ _ _|_    _   .\n    //    (_|(_| | (_|  _\\(/_ | |_||_)  .\n    //=============================|================================================\n    uint256 public registrationFee_ = 10 finney;            // price to register a name\n    mapping(uint256 => address) public games_;  // mapping of our game interfaces for sending your account info to games\n    mapping(address => bytes32) public gameNames_;          // lookup a games name\n    mapping(address => uint256) public gameIDs_;            // lokup a games ID\n    uint256 public gID_;        // total number of games\n    uint256 public pID_;        // total number of players\n    mapping(address => uint256) public pIDxAddr_;          // (addr => pID) returns player id by address\n    mapping(bytes32 => uint256) public pIDxName_;          // (name => pID) returns player id by name\n    mapping(uint256 => Player) public plyr_;               // (pID => data) player data\n    mapping(uint256 => mapping(bytes32 => bool)) public plyrNames_; // (pID => name => bool) list of names a player owns.  (used so you can change your display name amoungst any name you own)\n    mapping(uint256 => mapping(uint256 => bytes32)) public plyrNameList_; // (pID => nameNum => name) list of names a player owns\n    struct Player {\n        address addr;\n        bytes32 name;\n        uint256 laff;\n        uint256 names;\n    }\n\n    address public owner;\n\n    function setTeam(address _teamJust) external {\n        require(msg.sender == owner, 'only dev!');\n        require(address(teamJust) == address(0), 'already set!');\n        teamJust = _teamJust;\n    }\n    //==============================================================================\n    //     _ _  _  __|_ _    __|_ _  _  .\n    //    (_(_)| |_\\ | | |_|(_ | (_)|   .  (initial data setup upon contract deploy)\n    //==============================================================================\n    constructor()\n    public\n    {\n        owner = msg.sender;\n        // premine the dev names (sorry not sorry)\n        // No keys are purchased with this method, it's simply locking our addresses,\n        // PID's and names for referral codes.\n        plyr_[1].addr = msg.sender;\n        plyr_[1].name = \"as\";\n        plyr_[1].names = 1;\n        pIDxAddr_[msg.sender] = 1;\n        pIDxName_[\"as\"] = 1;\n        plyrNames_[1][\"as\"] = true;\n        plyrNameList_[1][1] = \"as\";\n\n        pID_ = 1;\n        Jekyll_Island_Inc = 0x254deCE08C6992c64464976d6de25d5A6De833cf;\n    }\n    //==============================================================================\n    //     _ _  _  _|. |`. _  _ _  .\n    //    | | |(_)(_||~|~|(/_| _\\  .  (these are safety checks)\n    //==============================================================================\n    /**\n     * @dev prevents contracts from interacting with fomo3d \n     */\n    modifier isHuman() {\n        address _addr = msg.sender;\n        uint256 _codeLength;\n\n        assembly {_codeLength := extcodesize(_addr)}\n        require(_codeLength == 0, \"sorry humans only\");\n        _;\n    }\n\n    modifier onlyDevs()\n    {\n        require(TeamJustInterface(teamJust).isDev(msg.sender) == true, \"msg sender is not a dev\");\n        _;\n    }\n\n    modifier isRegisteredGame()\n    {\n        require(gameIDs_[msg.sender] != 0);\n        _;\n    }\n    //==============================================================================\n    //     _    _  _ _|_ _  .\n    //    (/_\\/(/_| | | _\\  .\n    //==============================================================================\n    // fired whenever a player registers a name\n    event onNewName\n    (\n        uint256 indexed playerID,\n        address indexed playerAddress,\n        bytes32 indexed playerName,\n        bool isNewPlayer,\n        uint256 affiliateID,\n        address affiliateAddress,\n        bytes32 affiliateName,\n        uint256 amountPaid,\n        uint256 timeStamp\n    );\n    //==============================================================================\n    //     _  _ _|__|_ _  _ _  .\n    //    (_|(/_ |  | (/_| _\\  . (for UI & viewing things on etherscan)\n    //=====_|=======================================================================\n    function checkIfNameValid(string _nameStr)\n    public\n    view\n    returns (bool)\n    {\n        bytes32 _name = _nameStr.nameFilter();\n        if (pIDxName_[_name] == 0)\n            return (true);\n        else\n            return (false);\n    }\n    //==============================================================================\n    //     _    |_ |. _   |`    _  __|_. _  _  _  .\n    //    |_)|_||_)||(_  ~|~|_|| |(_ | |(_)| |_\\  .  (use these to interact with contract)\n    //====|=========================================================================\n    /**\n     * @dev registers a name.  UI will always display the last name you registered.\n     * but you will still own all previously registered names to use as affiliate \n     * links.\n     * - must pay a registration fee.\n     * - name must be unique\n     * - names will be converted to lowercase\n     * - name cannot start or end with a space \n     * - cannot have more than 1 space in a row\n     * - cannot be only numbers\n     * - cannot start with 0x \n     * - name must be at least 1 char\n     * - max length of 32 characters long\n     * - allowed characters: a-z, 0-9, and space\n     * -functionhash- 0x921dec21 (using ID for affiliate)\n     * -functionhash- 0x3ddd4698 (using address for affiliate)\n     * -functionhash- 0x685ffd83 (using name for affiliate)\n     * @param _nameString players desired name\n     * @param _affCode affiliate ID, address, or name of who refered you\n     * @param _all set to true if you want this to push your info to all games \n     * (this might cost a lot of gas)\n     */\n    function registerNameXID(string _nameString, uint256 _affCode, bool _all)\n    isHuman()\n    public\n    payable\n    {\n        // make sure name fees paid\n        require(msg.value >= registrationFee_, \"umm.....  you have to pay the name fee\");\n\n        // filter name + condition checks\n        bytes32 _name = NameFilter.nameFilter(_nameString);\n\n        // set up address \n        address _addr = msg.sender;\n\n        // set up our tx event data and determine if player is new or not\n        bool _isNewPlayer = determinePID(_addr);\n\n        // fetch player id\n        uint256 _pID = pIDxAddr_[_addr];\n\n        // manage affiliate residuals\n        // if no affiliate code was given, no new affiliate code was given, or the \n        // player tried to use their own pID as an affiliate code, lolz\n        if (_affCode != 0 && _affCode != plyr_[_pID].laff && _affCode != _pID)\n        {\n            // update last affiliate \n            plyr_[_pID].laff = _affCode;\n        } else if (_affCode == _pID) {\n            _affCode = 0;\n        }\n\n        // register name \n        registerNameCore(_pID, _addr, _affCode, _name, _isNewPlayer, _all);\n    }\n\n    function registerNameXaddr(string _nameString, address _affCode, bool _all)\n    isHuman()\n    public\n    payable\n    {\n        // make sure name fees paid\n        require(msg.value >= registrationFee_, \"umm.....  you have to pay the name fee\");\n\n        // filter name + condition checks\n        bytes32 _name = NameFilter.nameFilter(_nameString);\n\n        // set up address \n        address _addr = msg.sender;\n\n        // set up our tx event data and determine if player is new or not\n        bool _isNewPlayer = determinePID(_addr);\n\n        // fetch player id\n        uint256 _pID = pIDxAddr_[_addr];\n\n        // manage affiliate residuals\n        // if no affiliate code was given or player tried to use their own, lolz\n        uint256 _affID;\n        if (_affCode != address(0) && _affCode != _addr)\n        {\n            // get affiliate ID from aff Code \n            _affID = pIDxAddr_[_affCode];\n\n            // if affID is not the same as previously stored \n            if (_affID != plyr_[_pID].laff)\n            {\n                // update last affiliate\n                plyr_[_pID].laff = _affID;\n            }\n        }\n\n        // register name \n        registerNameCore(_pID, _addr, _affID, _name, _isNewPlayer, _all);\n    }\n\n    function registerNameXname(string _nameString, bytes32 _affCode, bool _all)\n    isHuman()\n    public\n    payable\n    {\n        // make sure name fees paid\n        require(msg.value >= registrationFee_, \"umm.....  you have to pay the name fee\");\n\n        // filter name + condition checks\n        bytes32 _name = NameFilter.nameFilter(_nameString);\n\n        // set up address \n        address _addr = msg.sender;\n\n        // set up our tx event data and determine if player is new or not\n        bool _isNewPlayer = determinePID(_addr);\n\n        // fetch player id\n        uint256 _pID = pIDxAddr_[_addr];\n\n        // manage affiliate residuals\n        // if no affiliate code was given or player tried to use their own, lolz\n        uint256 _affID;\n        if (_affCode != \"\" && _affCode != _name)\n        {\n            // get affiliate ID from aff Code \n            _affID = pIDxName_[_affCode];\n\n            // if affID is not the same as previously stored \n            if (_affID != plyr_[_pID].laff)\n            {\n                // update last affiliate\n                plyr_[_pID].laff = _affID;\n            }\n        }\n\n        // register name \n        registerNameCore(_pID, _addr, _affID, _name, _isNewPlayer, _all);\n    }\n\n    /**\n     * @dev players, if you registered a profile, before a game was released, or\n     * set the all bool to false when you registered, use this function to push\n     * your profile to a single game.  also, if you've  updated your name, you\n     * can use this to push your name to games of your choosing.\n     * -functionhash- 0x81c5b206\n     * @param _gameID game id \n     */\n    function addMeToGame(uint256 _gameID)\n    isHuman()\n    public\n    {\n        require(_gameID <= gID_, \"silly player, that game doesn't exist yet\");\n        address _addr = msg.sender;\n        uint256 _pID = pIDxAddr_[_addr];\n        require(_pID != 0, \"hey there buddy, you dont even have an account\");\n        uint256 _totalNames = plyr_[_pID].names;\n\n        // add players profile and most recent name\n        PlayerBookReceiverInterface(games_[_gameID]).receivePlayerInfo(_pID, _addr, plyr_[_pID].name, plyr_[_pID].laff);\n\n        // add list of all names\n        if (_totalNames > 1)\n            for (uint256 ii = 1; ii <= _totalNames; ii++)\n                PlayerBookReceiverInterface(games_[_gameID]).receivePlayerNameList(_pID, plyrNameList_[_pID][ii]);\n    }\n\n    /**\n     * @dev players, use this to push your player profile to all registered games.\n     * -functionhash- 0x0c6940ea\n     */\n    function addMeToAllGames()\n    isHuman()\n    public\n    {\n        address _addr = msg.sender;\n        uint256 _pID = pIDxAddr_[_addr];\n        require(_pID != 0, \"hey there buddy, you dont even have an account\");\n        uint256 _laff = plyr_[_pID].laff;\n        uint256 _totalNames = plyr_[_pID].names;\n        bytes32 _name = plyr_[_pID].name;\n\n        for (uint256 i = 1; i <= gID_; i++)\n        {\n            PlayerBookReceiverInterface(games_[i]).receivePlayerInfo(_pID, _addr, _name, _laff);\n            if (_totalNames > 1)\n                for (uint256 ii = 1; ii <= _totalNames; ii++)\n                    PlayerBookReceiverInterface(games_[i]).receivePlayerNameList(_pID, plyrNameList_[_pID][ii]);\n        }\n\n    }\n\n    /**\n     * @dev players use this to change back to one of your old names.  tip, you'll\n     * still need to push that info to existing games.\n     * -functionhash- 0xb9291296\n     * @param _nameString the name you want to use \n     */\n    function useMyOldName(string _nameString)\n    isHuman()\n    public\n    {\n        // filter name, and get pID\n        bytes32 _name = _nameString.nameFilter();\n        uint256 _pID = pIDxAddr_[msg.sender];\n\n        // make sure they own the name \n        require(plyrNames_[_pID][_name] == true, \"umm... thats not a name you own\");\n\n        // update their current name \n        plyr_[_pID].name = _name;\n    }\n\n    //==============================================================================\n    //     _ _  _ _   | _  _ . _  .\n    //    (_(_)| (/_  |(_)(_||(_  .\n    //=====================_|=======================================================\n    function registerNameCore(uint256 _pID, address _addr, uint256 _affID, bytes32 _name, bool _isNewPlayer, bool _all)\n    private\n    {\n        // if names already has been used, require that current msg sender owns the name\n        if (pIDxName_[_name] != 0)\n            require(plyrNames_[_pID][_name] == true, \"sorry that names already taken\");\n\n        // add name to player profile, registry, and name book\n        plyr_[_pID].name = _name;\n        pIDxName_[_name] = _pID;\n        if (plyrNames_[_pID][_name] == false)\n        {\n            plyrNames_[_pID][_name] = true;\n            plyr_[_pID].names++;\n            plyrNameList_[_pID][plyr_[_pID].names] = _name;\n        }\n\n        // registration fee goes directly to community rewards\n        Jekyll_Island_Inc.transfer(address(this).balance);\n\n        // push player info to games\n        if (_all == true)\n            for (uint256 i = 1; i <= gID_; i++)\n                PlayerBookReceiverInterface(games_[i]).receivePlayerInfo(_pID, _addr, _name, _affID);\n\n        // fire event\n        emit onNewName(_pID, _addr, _name, _isNewPlayer, _affID, plyr_[_affID].addr, plyr_[_affID].name, msg.value, now);\n    }\n    //==============================================================================\n    //    _|_ _  _ | _  .\n    //     | (_)(_)|_\\  .\n    //==============================================================================\n    function determinePID(address _addr)\n    private\n    returns (bool)\n    {\n        if (pIDxAddr_[_addr] == 0)\n        {\n            pID_++;\n            pIDxAddr_[_addr] = pID_;\n            plyr_[pID_].addr = _addr;\n\n            // set the new player bool to true\n            return (true);\n        } else {\n            return (false);\n        }\n    }\n    //==============================================================================\n    //   _   _|_ _  _ _  _ |   _ _ || _  .\n    //  (/_>< | (/_| | |(_||  (_(_|||_\\  .\n    //==============================================================================\n    function getPlayerID(address _addr)\n    isRegisteredGame()\n    external\n    returns (uint256)\n    {\n        determinePID(_addr);\n        return (pIDxAddr_[_addr]);\n    }\n\n    function getPlayerName(uint256 _pID)\n    external\n    view\n    returns (bytes32)\n    {\n        return (plyr_[_pID].name);\n    }\n\n    function getPlayerLAff(uint256 _pID)\n    external\n    view\n    returns (uint256)\n    {\n        return (plyr_[_pID].laff);\n    }\n\n    function getPlayerAddr(uint256 _pID)\n    external\n    view\n    returns (address)\n    {\n        return (plyr_[_pID].addr);\n    }\n\n    function getNameFee()\n    external\n    view\n    returns (uint256)\n    {\n        return (registrationFee_);\n    }\n\n    function registerNameXIDFromDapp(address _addr, bytes32 _name, uint256 _affCode, bool _all)\n    isRegisteredGame()\n    external\n    payable\n    returns (bool, uint256)\n    {\n        // make sure name fees paid\n        require(msg.value >= registrationFee_, \"umm.....  you have to pay the name fee\");\n\n        // set up our tx event data and determine if player is new or not\n        bool _isNewPlayer = determinePID(_addr);\n\n        // fetch player id\n        uint256 _pID = pIDxAddr_[_addr];\n\n        // manage affiliate residuals\n        // if no affiliate code was given, no new affiliate code was given, or the \n        // player tried to use their own pID as an affiliate code, lolz\n        uint256 _affID = _affCode;\n        if (_affID != 0 && _affID != plyr_[_pID].laff && _affID != _pID)\n        {\n            // update last affiliate \n            plyr_[_pID].laff = _affID;\n        } else if (_affID == _pID) {\n            _affID = 0;\n        }\n\n        // register name \n        registerNameCore(_pID, _addr, _affID, _name, _isNewPlayer, _all);\n\n        return (_isNewPlayer, _affID);\n    }\n\n    function registerNameXaddrFromDapp(address _addr, bytes32 _name, address _affCode, bool _all)\n    isRegisteredGame()\n    external\n    payable\n    returns (bool, uint256)\n    {\n        // make sure name fees paid\n        require(msg.value >= registrationFee_, \"umm.....  you have to pay the name fee\");\n\n        // set up our tx event data and determine if player is new or not\n        bool _isNewPlayer = determinePID(_addr);\n\n        // fetch player id\n        uint256 _pID = pIDxAddr_[_addr];\n\n        // manage affiliate residuals\n        // if no affiliate code was given or player tried to use their own, lolz\n        uint256 _affID;\n        if (_affCode != address(0) && _affCode != _addr)\n        {\n            // get affiliate ID from aff Code \n            _affID = pIDxAddr_[_affCode];\n\n            // if affID is not the same as previously stored \n            if (_affID != plyr_[_pID].laff)\n            {\n                // update last affiliate\n                plyr_[_pID].laff = _affID;\n            }\n        }\n\n        // register name \n        registerNameCore(_pID, _addr, _affID, _name, _isNewPlayer, _all);\n\n        return (_isNewPlayer, _affID);\n    }\n\n    function registerNameXnameFromDapp(address _addr, bytes32 _name, bytes32 _affCode, bool _all)\n    isRegisteredGame()\n    external\n    payable\n    returns (bool, uint256)\n    {\n        // make sure name fees paid\n        require(msg.value >= registrationFee_, \"umm.....  you have to pay the name fee\");\n\n        // set up our tx event data and determine if player is new or not\n        bool _isNewPlayer = determinePID(_addr);\n\n        // fetch player id\n        uint256 _pID = pIDxAddr_[_addr];\n\n        // manage affiliate residuals\n        // if no affiliate code was given or player tried to use their own, lolz\n        uint256 _affID;\n        if (_affCode != \"\" && _affCode != _name)\n        {\n            // get affiliate ID from aff Code \n            _affID = pIDxName_[_affCode];\n\n            // if affID is not the same as previously stored \n            if (_affID != plyr_[_pID].laff)\n            {\n                // update last affiliate\n                plyr_[_pID].laff = _affID;\n            }\n        }\n\n        // register name \n        registerNameCore(_pID, _addr, _affID, _name, _isNewPlayer, _all);\n\n        return (_isNewPlayer, _affID);\n    }\n\n    //==============================================================================\n    //   _ _ _|_    _   .\n    //  _\\(/_ | |_||_)  .\n    //=============|================================================================\n    function addGame(address _gameAddress, bytes32 _gameNameStr)\n    onlyDevs()\n    external\n    {\n        require(gameIDs_[_gameAddress] == 0, \"derp, that games already been registered\");\n\n        if (multiSigDev(\"addGame\") == true)\n        {deleteProposal(\"addGame\");\n            gID_++;\n            bytes32 _name = _gameNameStr;\n            gameIDs_[_gameAddress] = gID_;\n            gameNames_[_gameAddress] = _name;\n            games_[gID_] = _gameAddress;\n\n//            PlayerBookReceiverInterface(games_[gID_]).receivePlayerInfo(1, plyr_[1].addr, plyr_[1].name, 0);\n\n        }\n    }\n\n    function setRegistrationFee(uint256 _fee)\n    onlyDevs()\n    public\n    {\n        if (multiSigDev(\"setRegistrationFee\") == true)\n        {deleteProposal(\"setRegistrationFee\");\n            registrationFee_ = _fee;\n        }\n    }\n\n    function isDev(address _who) external view returns(bool) {return TeamJustInterface(teamJust).isDev(_who);}\n\n}",
  "sourcePath": "/Users/Jimmy/Dropbox/nxg/gocode/src/awesome/fomo_truffle/contracts/PlayerBook.sol",
  "compiler": {
    "name": "solc",
    "version": "0.4.24+commit.e67f0147.Emscripten.clang"
  },
  "schemaVersion": "2.0.1",
  "updatedAt": "2018-12-07T05:22:16.822Z"
}